:020000040800F2
:1000000028090020ED1E0008D9060008DB060008BC
:10001000DF060008E3060008E7060008000000000D
:10002000000000000000000000000000EB060008D7
:10003000ED06000800000000EF060008F1060008C9
:10004000071F0008071F0008071F0008071F0008F8
:10005000071F0008071F0008F3060008071F000815
:10006000071F0008071F0008071F0008071F0008D8
:10007000071F0008071F0008071F0008071F0008C8
:10008000071F0008071F0008071F0008071F0008B8
:10009000071F0008071F0008071F0008071F0008A8
:1000A000071F0008071F0008071F0008071F000898
:1000B000071F0008071F0008071F0008071F000888
:1000C000071F0008071F0008071F0008071F000878
:1000D000071F0008071F00085D070008071F00082A
:1000E000071F0008071F0008071F000800F002F89C
:1000F00000F03AF80AA090E8000C82448344AAF188
:100100000107DA4501D100F02FF8AFF2090EBAE885
:100110000F0013F0010F18BFFB1A43F0010318473B
:10012000C41E0000E41E0000103A24BF78C878C145
:10013000FAD8520724BF30C830C144BF04680C60ED
:10014000704700000023002400250026103A28BF35
:1001500078C1FBD8520728BF30C148BF0B60704739
:100160001FB51FBD10B510BD01F002FF1146FFF70E
:10017000F7FF00F043F901F020FF03B4FFF7F2FFAF
:1001800003BC01F027FF000038B5002400254FF420
:100190008060ADF8000003208DF802004FF48071FC
:1001A000FB4801F03EF910208DF803006946F9483C
:1001B00001F088F800BF05E0002500E06D1C0A2D65
:1001C000FCDD641CF4488442F6DD4FF48071F04895
:1001D00001F025F904208DF803006946ED4801F08F
:1001E00071F838BD1CB5012000F025FD002102206A
:1001F00001F07EF90120009000208DF804000C2011
:100200008DF8050001208DF80600684600F09CFC82
:100210001CBD08B54FF4A06000F0F0FA06208DF880
:1002200000000F208DF801008DF8020001208DF8EC
:100230000300684600F0E7FA4FF4E06000F0DEFAF1
:1002400026208DF8000000208DF8020001208DF896
:100250000300684600F0D7FA08BD08B50121042064
:1002600001F001F94FF48060ADF8000010208DF826
:10027000030003208DF80200ADF8000004208DF883
:1002800003006946C34801F01DF84FF44070ADF813
:10029000000010208DF803006946BD4801F012F8F7
:1002A0004FF48071BA4801F0BAF84FF40071B848C1
:1002B00001F0B5F80420ADF8000018208DF8030017
:1002C0006946B64800F0FEFF0421B44801F0A7F8E3
:1002D0000820ADF8000004208DF803006946AF48FF
:1002E00000F0F0FF08BD1FB54FF41650009000203D
:1002F000ADF80400ADF80600ADF80800ADF80C004C
:100300000C20ADF80A006946A54801F03EFB012229
:1003100040F22551A24801F0D0FB012240F22441D5
:100320009F4801F0CAFB012240219D4801F0EAFBF1
:1003300001219B4801F0B5FB1FBD00B58BB0012129
:10034000084601F06EFA9648001D0090954801900D
:10035000002002904FF480700390002004908020D1
:10036000059000200690079008904FF400500990E7
:1003700000200A9069468C4800F050FB01218A4811
:1003800000F077FB0BB000BD10B501F0E9F84FF4B9
:10039000803001F005F901F042F90446012C24D126
:1003A000002001F082F9002001F091F9A00201F093
:1003B00085F9022000F048FC102000F059FC4FF4B1
:1003C000E011200401F054F9012001F05DF900BFB3
:1003D000392001F008F90028FAD0022001F057F97D
:1003E00000BF01F05DF90828FBD101211D2001F0BB
:1003F00025FA0121480401F02EFA10BD8AB0002729
:100400004FF001080026B346B246FFF7BDFFFFF7E5
:1004100094FFFFF768FFFFF720FFFFF7FAFEFFF7F3
:10042000E1FE4EE100BF614800680028FBD00020DB
:100430005E4908605B4801F079FD0646594800783E
:10044000412808D0492802D04F2806D101E00127D1
:1004500005E0022703E0042701E0032700BF00BFF7
:10046000012F4DD1112E4BD104205149087000F0BD
:1004700010FC4FF0100B352000F0A0FE4FF0000AEA
:1004800009E04C494A1402FB0A1000F041FC4849BB
:1004900008700AF1010ADA4503D2454800780428B9
:1004A000EFD0444DD5F800904348814525D0014612
:1004B000284600F0FDFC3E490870D5F80090002069
:1004C00009902D1D01240FE03648005D099000BF02
:1004D000374800780428FBD12846099900F01BFD15
:1004E00033490870641CAD1C701EA042ECDC442132
:1004F000284600F010FD2E49087000F0D7FBDFE021
:10050000022F32D1112E30D1042029490870352014
:1005100000F054FE274D21E02D1D002405E0288821
:1005200001A921F81400AD1C641C0F2CF7DBAD1CD5
:1005300000240BE001A830F814101A4A601C105C6B
:10054000814202D04FF0000802E0641C0F2CF1DB66
:1005500000BFB8F1010F01D1FFF716FE2868164958
:100560008842D9D04FF00108AAE0032F46D14FF0BE
:100570000108FFF709FE002423E00A49601C085C1B
:100580000E49095D88421BD04FF000081BE00000B7
:10059000000C01400010014040420F0000080140E3
:1005A00000440040C40000206C0002400000002015
:1005B0000F0000200080000849454D49110000202F
:1005C000641C112CD9DB00BFB8F1010F10D100243D
:1005D0000BE03C4904F11100085C3B49095D88428D
:1005E00002D04FF0000802E0641C112CF1DB00BFC8
:1005F000B8F1010F64D1FFF7C7FD61E0042F5FD1AF
:10060000212E5DD104203149087000F042FB3520D5
:1006100000F0D4FD2E4DD5F800902E4881454BD1E9
:100620002D1D002405E0288801A921F81400AD1C27
:10063000641C0F2CF7DBAD1C00240BE001A830F884
:100640001410204A601C105C814202D04FF0000858
:1006500002E0641C0F2CF1DB00BFB8F1010F2BD1BD
:10066000D5F8009001E02D1D20351A488145FAD0BB
:100670000146284600F01CFC14490870002009902F
:100680002D1D11240FE00F48005D099000BF0F4899
:1006900000780428FBD12846099900F03CFC0B495E
:1006A0000870641CAD1C701EA042ECDC442128467E
:1006B00000F031FC054908704FF0010800F0F6FA2F
:1006C0000027AFE6C4000020220000200F00002019
:1006D0000080000849454D49704700BFFEE700BF54
:1006E000FEE700BFFEE700BFFEE7704770477047B8
:1006F000704738B500240025012000F08BFA60B364
:100700004FF48060ADF8000003208DF802004FF434
:100710008071324800F085FE10208DF80300694694
:100720002F4800F0CFFD00BF05E0002500E06D1C64
:100730000A2DFCDD641C2B488442F6DD4FF48071E9
:10074000264800F06CFE04208DF80300694624481A
:1007500000F0B8FD012000F06EFA38BD10B500249D
:1007600040F22441204801F08DFA012822D10102F3
:100770001A4800F056FE1C480088C4B21A48001DF2
:100780000088C4B20021194800F073F9174800F03E
:1007900087F94042C4B20020154908554FF48070D3
:1007A00012496C3908670121104800F062F90120F4
:1007B0001049086010BD10B504460BE014F8011B89
:1007C0000D4801F0DBF900BF80210B4801F044FA2D
:1007D0000028F9D020780028F0D110BD000C01408D
:1007E0000010014040420F00004400406C000240F5
:1007F000C4000020000000200038014031490143BE
:10080000314A1160704770B5002100230F22C4786F
:1008100004B32D4C246804F4E064C4F5E064210AB8
:10082000C1F10403CA40447804FA03F18478144007
:1008300021430901254C0678A155047804F01F05D1
:100840000124AC4005786D11AD0005F1E025C5F837
:10085000004109E0047804F01F050124AC401C4D60
:100860000678761145F8264070BD1A4A0A400243C0
:10087000154B1B1F1A60704739B1134A121D1268BD
:100880000243114B1B1D1A6006E00F4A121D12682D
:1008900082430D4B1B1D1A607047042808D14FF08E
:1008A000E021096941F004014FF0E022116107E005
:1008B0004FF0E021096921F004014FF0E0221161BD
:1008C000704700000000FA050CED00E000E400E0D5
:1008D00080E100E080FFFF1F01684FF6FE721140CB
:1008E00001600021016041608160C1608D498842E2
:1008F00008D18C490839496841F00F01894A083A02
:1009000051608AE087491431884208D18549083905
:10091000496841F0F001834A083A51607DE081491D
:100920002831884208D17F490839496841F470610B
:100930007C4A083A516070E07A493C31884208D1DB
:1009400078490839496841F47041764A083A51605B
:1009500063E074495031884208D1724908394968C6
:1009600041F470216F4A083A516056E06D49643194
:10097000884208D16B490839496841F47001694AD5
:10098000083A516049E067497831884208D16549A1
:100990000839496841F07061624A083A51603CE0A8
:1009A0006149884206D1011F096841F00F01021F09
:1009B000116032E05C491431884208D15A49091F5C
:1009C000096841F0F001584A121F116025E05649AC
:1009D0002831884208D15449091F096841F47061DF
:1009E000514A121F116018E04F493C31884208D12A
:1009F0004D49091F096841F470414B4A121F1160AB
:100A00000BE049495031884207D14749091F09681D
:100A100041F47021444A121F1160704710B5002242
:100A2000026847F6F0739A430C6A8B6823430C699B
:100A300023434C6923438C692343CC6923434C6A89
:100A400023438C6A23431A430260CB6843600B68DC
:100A500083604B68C36010BD00210160416081600C
:100A6000C160016141618161C16101624162816274
:100A7000704721B1026842F00102026004E002689E
:100A80004FF6FE731A40026070471AB103680B43B9
:100A9000036002E003688B43036070474160704766
:100AA0000146486880B2704701460020002201F0EC
:100AB00080531BB11C4B083B1A6802E0194B083BE2
:100AC0001A6802EA01030BB1012000E00020704720
:100AD00000F0805119B11449091F086002E0114962
:100AE00008394860704701460020002201F0805319
:100AF0001BB10D4B083B1A6802E00A4B083B1A6811
:100B000002EA01030BB1012000E00020704700F071
:100B1000805119B10449091F086002E001490839F0
:100B20004860704708000240080402400020444921
:100B30000860091D0860091D0860091D086041481A
:100B40003F4914310860704700213D498279002AED
:100B50003AD00A46126803689A430B461A600A1D87
:100B6000126803689A430B1D1A60027911440A68DF
:100B700003681A430A60324A0832126803689A43CB
:100B80002F4B08331A601A1D126803689A432C4BC6
:100B90000C331A604279102A0ED11A1F12680368AA
:100BA0001A43274B08331A601A1D126803681A4348
:100BB000234B0C331A600DE02149427911440A6835
:100BC00003681A430A6005E0027911440A68036861
:100BD0009A430A6070470021016001710C21417144
:100BE0000021817170471649103109680143144A88
:100BF00010321160704701460020114A1432126809
:100C00000A400AB1012000E0002070470C4914316D
:100C100008607047014600200022094B1B6803EA68
:100C20000102074B14331B680B4013B10AB10120BA
:100C300000E000207047024914310860704700004E
:100C400000040140FFFF0F0001460020FE4A10682B
:100C500000F03800084310607047FB49096821F034
:100C60000801F94A11601146096801431160704793
:100C7000F549096821F01001F34A1160114609682D
:100C8000014311607047F148EF494860F0484860FF
:100C90007047EE48EC494860ED4848607047EA48C4
:100CA000006940F08000E84908617047E648006943
:100CB00040F08000E449086170470420E249C968B7
:100CC00001F0010109B101200EE0DF49C96801F01E
:100CD000040109B1022007E0DB49C96801F01001F5
:100CE00009B1032000E00420704700B50246042348
:100CF000FFF7E3FF034603E0FFF7DFFF0346521E63
:100D0000012B01D1002AF7D102B90523184600BDF5
:100D100030B5044604254FF43020FFF7E6FF0546C2
:100D2000042D17D1C848006940F00200C649086187
:100D300008464461006940F0400008614FF43020EB
:100D4000FFF7D3FF0546C048006941F6FD71084032
:100D5000BD490861284630BD10B504244FF4302049
:100D6000FFF7C3FF0446042C16D1B748006940F0D2
:100D70000400B54908610846006940F04000086178
:100D80004FF43020FFF7B1FF0446AF48006941F649
:100D9000FB710840AC490861204610BD00B5024611
:100DA0000423FFF78AFF034603E0FFF786FF0346AD
:100DB000521E012B01D1002AF7D102B90523184692
:100DC00000BD10B504244FF43020FFF7E7FF0446C0
:100DD000042C16D19C48006940F004009A4908612F
:100DE0000846006940F0400008614FF43020FFF7EA
:100DF000D5FF04469448006941F6FB7108409249CA
:100E00000861204610BD00208F49C96901F0020128
:100E100009B1012000E00020704730B5A525042469
:100E2000FFF7F1FF00B100254FF43020FFF75DFF21
:100E30000446042C3AD185488349886084488860F8
:100E40000846006940F0200008610846006940F04B
:100E5000400008614FF43020FFF747FF0446042CA0
:100E60001BD17948006941F6DF7108407649086175
:100E70000846006940F01000086176480580E002ED
:100E8000FFF733FF0446052C10D06F48006941F688
:100E9000EF7108406C49086108E0052C06D06A48EB
:100EA000006941F6EF71084067490861204630BD8E
:100EB00078B506460C46042500200090E802FFF7AE
:100EC00014FF0546042D24D15F48006940F001005D
:100ED0005D4908613480E802FFF707FF0546042DED
:100EE00010D1B01C0090200C00990880E802FFF798
:100EF000FCFE05465448006941F6FE71084052491F
:100F0000086106E05048006941F6FE7108404E490C
:100F10000861284678BD70B504460D460426F002E7
:100F2000FFF7E3FE0646042E11D14748006940F062
:100F30000100454908612580F002FFF7D6FE06460C
:100F40004148006941F6FE7108403F49086130465A
:100F500070BD70B505460E460424E002FFF7C5FEDD
:100F60000446042C17D139483749886038488860CE
:100F70000846006940F0100008612E80E002FFF78B
:100F8000B4FE0446052C06D02F48006941F6EF71E7
:100F900008402D490861204670BD2DE9F043044604
:100FA0004FF6FF763746B046B1460425E443E6B235
:100FB000C4F30727C4F307484FEA1469E802FFF7B0
:100FC00094FE0546042D49D120481F4988602048D9
:100FD00088600846006940F010000861FF2E06D0C6
:100FE0001C4808300680E802FFF77FFE0546042D06
:100FF00008D1FF2F06D017480A300780E802FFF714
:1010000074FE0546042D0AD1B8F1FF0F07D0114830
:101010000C30A0F80080E802FFF767FE0546042DBB
:101020000AD1B9F1FF0F07D00A480E30A0F800909E
:10103000E802FFF75AFE0546052D0FD00248006969
:1010400041F6EF71084007E00020024023016745A8
:10105000AB89EFCD00F8FF1F664908612846BDE85F
:10106000F08330B5054604244FF43020FFF73DFEF1
:101070000446042C41D160485E4988605F4888601E
:101080000846006940F0200008610846006940F009
:10109000400008614FF43020FFF727FE0446042C7F
:1010A00022D15448006941F6DF7108405149086176
:1010B0000846006940F0100008611DB10020504949
:1010C000088002E0A5204E4908804FF43020FFF749
:1010D0000CFE0446052C10D04648006941F6EF711D
:1010E00008404449086108E0052C06D041480069E1
:1010F00041F6DF7108403F490861204630BDF0B538
:1011000005460E46174604243B483A4988603B484A
:101110008860E002FFF7E9FD0446042C19D1354848
:10112000006940F010003349086147F0F80030438F
:1011300028433349891C0880E002FFF7D6FD0446A6
:10114000052C06D02B48006941F6EF71084029496B
:1011500008612046F0BD2748C069800870472548CF
:10116000006A704700202349096801F0200109B195
:10117000012000E00020704729B11E4A1269024395
:101180001C4B1A6104E01B4A12698243194B1A6115
:10119000704701460020012908D1164AD26902F0A1
:1011A00001020AB1012008E0002006E0114AD268DD
:1011B0000A400AB1012000E0002070470D49C860D4
:1011C000704704200B49C96801F0010109B10120F1
:1011D0000EE00849C96801F0040109B1022007E0E6
:1011E0000449C96801F0100109B1032000E004209E
:1011F000704700000020024023016745AB89EFCD16
:1012000000F8FF1F10B50446CC48844208D10121E4
:10121000042000F02DFB0021042000F029FB46E013
:10122000C748844208D10121082000F021FB002199
:10123000082000F01DFB3AE0C248844208D1012199
:10124000102000F015FB0021102000F011FB2EE013
:10125000BD48844208D10121202000F009FB002173
:10126000202000F005FB22E0B848844208D101218B
:10127000402000F0FDFA0021402000F0F9FA16E0CD
:10128000B348844208D10121802000F0F1FA002106
:10129000802000F0EDFA0AE0AE48844207D1012137
:1012A000801500F0E5FA0021A01500F0E1FA10BD6C
:1012B00010B50121084600F0DBFA0021012000F002
:1012C000D7FA10BD2DE9F041024600250026002086
:1012D00000230024002791F803C00CF00F0591F8BB
:1012E00003C00CF0100CBCF1000F03D091F802C049
:1012F0004CEA050591F800C0BCF1000F31D014682C
:1013000000202BE04FF0010C0CFA00F3B1F800C004
:101310000CEA03069E4220D183004FF00F0C0CFA1A
:1013200003F7BC4305FA03FC4CEA040491F803C03C
:10133000BCF1280F06D14FF0010C0CFA00FCC2F8EA
:1013400014C00AE091F803C0BCF1480F05D14FF07A
:10135000010C0CFA00FCC2F810C0401C0828D1D3C4
:101360001460B1F800C0BCF1FF0F34DD54680020F8
:101370002EE000F1080C4FF0010808FA0CF3B1F868
:1013800000C00CEA03069E4221D183004FF00F0CEF
:101390000CFA03F7BC4305FA03FC4CEA040491F889
:1013A00003C0BCF1280F05D100F1080C08FA0CF8B5
:1013B000C2F8148091F803C0BCF1480F07D100F1C6
:1013C000080C4FF0010808FA0CF8C2F81080401C15
:1013D0000828CED35460BDE8F0814FF6FF7101803C
:1013E000022181700421C170704702460020936879
:1013F0000B400BB1012000E00020704701468868D7
:1014000080B2704702460020D3680B400BB1012028
:1014100000E0002070470146C86880B27047016153
:101420007047416170470AB1016100E04161704756
:10143000C16070474FF480320A43826181618261EA
:1014400082698269704702460020434B18684FF654
:101450008073184040EA021008433F4B1860704701
:101460003E49C8617047F0B50A46002300240021B8
:10147000002500F00046B6F1004F02D1364EF1696A
:1014800001E0354E7168C0F3034583B200F44016A5
:10149000B6F5401F08D121F070612F4E766826F016
:1014A00070662D4F7E6012E000F48016B6F5801F46
:1014B00006D1032606FA05F4A14341F0706106E067
:1014C000460D360103FA06F6B14341F0706122B1D0
:1014D000460D360103FA06F6314300F00046B6F138
:1014E000004F02D11C4EF16101E01B4E7160F0BD56
:1014F00030B500228B071C0F0F2303FA04F2164BA2
:1015000008338C1053F824309343134C08348D1057
:1015100044F8253023468C1053F824308C07240FD0
:1015200000FA04F423430C4C08348D1044F82530A1
:1015300030BD0A49DC3108607047000000080140F6
:10154000000C01400010014000140140001801404F
:10155000001C01400020014000000140000020422A
:10156000DF48006840F00100DD4908600846406837
:10157000DC490840DA49486008460068DA49084012
:10158000D74908600846006820F4802008600846B3
:10159000406820F4FE0048604FF41F0088607047E8
:1015A000CF49096821F48031CD4A1160114609689C
:1015B00021F480211160B0F5803F03D0B0F5802F79
:1015C0000ED106E0C649096841F48031C44A116071
:1015D00007E0C349096841F4A021C14A116000E055
:1015E00000BF00BF704710B5014600220023002055
:1015F0004A11012A02D1BA4C236806E0022A02D11C
:10160000B74C236A01E0B64C636A01F01F02012463
:1016100094401C400CB1012000E0002010BD38B502
:10162000002000900024002500BF3120FFF7DBFFE1
:1016300005460098401C00900098B0F5A06F01D0BE
:10164000002DF2D03120FFF7CEFF08B1012400E0D9
:101650000024204638BD01460020A14A106820F031
:10166000F80040EAC10010607047A0490860704768
:10167000024600209A4B586820F47C1042EA01038D
:101680001843974B58607047984908667047014661
:101690000020934A506820F00300084350607047D0
:1016A0008F48406800F00C007047014600208C4ACB
:1016B000506820F0F0000843506070470146002059
:1016C000874A506820F4E060084350607047014644
:1016D0000020834A506820F4605040EAC100506006
:1016E000704729B17E4A527A02437D4B5A7204E018
:1016F0007B4A527A82437A4B5A7270477B49D8317F
:101700000860704701460020754A506820F4404048
:101710000843506070470021714A20321170704AAE
:1017200082F82010012802D004280AD104E0012107
:101730006B4A2032117005E00521694A2032117090
:1017400000E000BF00BF7047694908607047644906
:10175000096A0143624A1162704765494439086069
:10176000704730B500210022002400235C4D6D68D5
:1017700005F00C0121B1042905D0082923D105E089
:101780005C4D056022E05B4D05601FE0544D6D68C7
:1017900005F47012524D6D6805F48034022505EB96
:1017A00092421CB9544D554305600BE04C4D6D6899
:1017B00005F400351DB1504D5543056002E04D4D17
:1017C0005543056002E04B4D056000BF00BF444D2E
:1017D0006D6805F0F0010909484D6B5C0568DD4056
:1017E00045603F4D6D6805F4E061090A434D6B5C4F
:1017F0004568DD4085603A4D6D6805F46051C90A61
:101800003E4D6B5C4568DD40C560354D6D6805F447
:101810004041890B3A4D6B5CC568B5FBF3F505613A
:1018200030BD29B12E4A526902432D4B5A6104E062
:101830002B4A526982432A4B5A61704729B1284A80
:1018400092690243264B9A6104E0254A92698243D9
:10185000234B9A61704729B1214AD2690243204B38
:10186000DA6104E01E4AD26982431D4BDA61704797
:1018700029B11B4AD2680243194BDA6004E0184AC6
:10188000D2688243164BDA60704729B1144A126954
:101890000243134B1A6104E0114A12698243104B50
:1018A0001A61704712494039086070470F49C8648F
:1018B00070470B49C87170470948406A40F0807012
:1018C00007494862704701460020054A92680A406D
:1018D0000AB1012000E0002070470149887270477A
:1018E000001002400000FFF8FFFFF6FE0000424239
:1018F0008004424200127A0000093D009900002055
:10190000A900002010B50446FB48844209D10121FA
:101910008803FFF7ADFF00214FF48040FFF7A8FFD9
:1019200032E0F648844209D101214804FFF7ADFFB7
:1019300000214FF40030FFF7A8FF25E0F048844273
:1019400009D101218804FFF7A0FF00214FF4802076
:10195000FFF79BFF18E0EB48844209D10121C8043E
:10196000FFF793FF00214FF40020FFF78EFF0BE0FD
:10197000E548844208D101210805FFF786FF0021D0
:101980004FF48010FFF781FF10BD2DE9F04786B0BE
:1019900005460E460024A24600BFA1460027B08996
:1019A00000B100BF2F462C8A4CF6FF700440F0882F
:1019B00004432C82AC894EF6F3100440B088318980
:1019C0000843718908430443AC81AC8A4FF6FF4059
:1019D0000440B0890443AC8201A8FFF7C2FEC648A8
:1019E000874202D1DDF810A001E0DDF80CA0A88943
:1019F00000F4004040B10AEBCA0000EB0A10316865
:101A00004900B0FBF1F807E00AEBCA0000EB0A104E
:101A100031688900B0FBF1F86420B8FBF0F00401F4
:101A20002009642101FB1089A88900F4004040B11D
:101A3000322000EBC900B0FBF1F000F007000443D6
:101A400008E0322000EB09106421B0FBF1F000F057
:101A50000F0004432C8106B0BDE8F0874FF4165107
:101A6000016000218180C18001810C214181002120
:101A70008181704710B502460020108A4FF2FF03A3
:101A800018400B884C8823438C882343CC882343FD
:101A90001843108210BD0021018041808180C180E7
:101AA000704721B1828942F40052828104E0828928
:101AB0004DF6FF731A4082817047F0B5034600244B
:101AC00000260025002040F66A17B94200D100BF69
:101AD0001846C1F3421401F01F06012707FA06F564
:101AE000012C01D10C3004E0022C01D1103000E0B7
:101AF00014301AB107682F43076002E00768AF434C
:101B00000760F0BD1AB1838A0B43838202E0838AA7
:101B10008B4383827047028A4FF6F0731A40028229
:101B2000028A0A430282704782894FF2FF731A4089
:101B3000828182890A438281704721B1828942F081
:101B40000202828104E082894FF6FD731A4082818D
:101B50007047028A4FF6DF731A400282028A0A43F4
:101B60000282704721B1028A42F48042028204E07C
:101B7000028A4BF6FF731A4002827047C1F30802D3
:101B80008280704701468888C0F3080070478189C9
:101B900041F0010181817047028BD2B20283028B36
:101BA00042EA012202837047028B02F47F420283E1
:101BB000028B0A430283704721B1828A42F02002DD
:101BC000828204E0828A4FF6DF731A408282704775
:101BD00021B1828A42F01002828204E0828A4FF6AA
:101BE000EF731A408282704721B1828A42F0080264
:101BF000828204E0828A4FF6F7731A40828270472D
:101C000021B1828942F40042828103E08289C2F3D9
:101C10000E028281704721B1828A42F40062828280
:101C200004E0828A4FF2FF731A4082827047828AF0
:101C30004FF6FB731A408282828A0A43828270477F
:101C400021B1828A42F00202828204E0828A4FF647
:101C5000FD731A408282704702460020B1F5007F72
:101C600000D100BF13880B400BB1012000E0002021
:101C7000704701F40072B2F5007F00D100BFCA4383
:101C80000280704770B50246002400230025002022
:101C900040F66A16B14200D100BFC1F3421501F00F
:101CA0001F03012606FA03F3012D02D19689334062
:101CB00006E0022D02D1168A334001E0968A3340B5
:101CC0000C12012606FA04F41688344013B10CB144
:101CD000012000E0002070BD10B50022002340F676
:101CE0006A14A14200D100BF0A1201249440A3B299
:101CF000DC43048010BD0000003801400044004077
:101D000000480040004C0040005000400CB500204E
:101D1000019000906C48006840F480306A49086087
:101D200000BF6948006800F4003000900198401C32
:101D30000190009818B90198B0F5A06FF1D16248F0
:101D4000006800F4003010B10120009001E0002094
:101D500000900098012843D15C48006840F01000D2
:101D60005A4908600846006820F0030008600846E9
:101D7000006840F0020008605348406852494860DB
:101D80000846406848600846406840F48060486003
:101D90000846406820F47C1048600846406840F4DB
:101DA000E81048600846006840F08070086000BF96
:101DB0004548006800F000700028F9D042484068AB
:101DC00020F00300404948600846406840F00200A7
:101DD000486000BF3C48406800F00C000828F9D17A
:101DE0000CBD10B5FFF792FF10BD10B53648006866
:101DF00040F0010034490860084640683449084012
:101E00003149486008460068324908402E49086058
:101E10000846006820F4802008600846406820F4E6
:101E2000FE0048604FF41F008860FFF7DAFF4FF0B4
:101E300000602949086010BD10B500210020002273
:101E4000214B5B6803F00C0121B1042906D008295D
:101E500028D107E0214B224C236027E01F4B204C68
:101E6000236023E0184B5B6803F47010164B5B682B
:101E700003F48032022303EB904022B9194B434311
:101E8000174C23600DE0104B5B6803F4003323B163
:101E9000144B4343124C236003E0104B4343104C5C
:101EA000236003E00D4B0E4C236000BF00BF064BC8
:101EB0005B68C3F303130C4CE15C094B1B68CB401C
:101EC000074C236010BD00000010024000200240BB
:101ED0000000FFF8FFFFF6FE08ED00E000127A00B8
:101EE000B000002000093D00B400002009488047F0
:101EF00009480047FEE7FEE7FEE7FEE7FEE7FEE7EC
:101F0000FEE7FEE7FEE7FEE704480549054A064B03
:101F100070470000EB1D0008ED00000828030020BA
:101F200028090020280500202805002010B5431CA2
:101F300002E010F8011B71B18107FAD14FF00132B4
:101F400002C88C1A8C4314EAC211F9D0C01A0A06CE
:101F500003D0C01E10BDC01A10BD0A0401D0801EDF
:101F600010BD0902FCD0401E10BD7047704770477D
:101F7000754600F02BF8AE4605006946534620F042
:101F80000700854618B020B5FFF7BEFFBDE820402A
:101F90004FF000064FF000074FF000084FF0000B25
:101FA00021F00701AC46ACE8C009ACE8C009ACE8D8
:101FB000C009ACE8C0098D46704710B50446AFF3C0
:101FC00000802046BDE81040FEF7D7B800487047B3
:101FD000C402002001491820ABBEFEE72600020023
:101FE000704700000420000800000020C40000002A
:101FF00028010008C8200008C40000206408000070
:102000004401000800000000000000000000000083
:1020100000000000002377317A48654C31306C3481
:10202000697733656900733937683369356E3969A3
:102030003264333030610079656E696434306179BF
:102040006573396875697700616E676F6E6339759E
:10205000306F6267776F636800346C69776532361A
:10206000356967756F79333461006F636F6E6738F8
:1020700073687569326C31697765003769396C69E5
:10208000773865697368357538696700756F796188
:10209000336F696A69616F776F636875000000006C
:1020A00000010203040102030406070809020406F2
:1020B0000800000000A24A04000000000000000028
:0820C0000102030406070809F0
:0400000508001EEDE4
:00000001FF
